{
  "contractName": "ItemManager",
  "abi": [
    {
      "anonymous": false,
      "inputs": [
        {
          "indexed": false,
          "internalType": "uint256",
          "name": "_itemIndex",
          "type": "uint256"
        },
        {
          "indexed": false,
          "internalType": "uint8",
          "name": "_rating",
          "type": "uint8"
        }
      ],
      "name": "ItemRated",
      "type": "event"
    },
    {
      "anonymous": false,
      "inputs": [
        {
          "indexed": false,
          "internalType": "uint256",
          "name": "_itemIndex",
          "type": "uint256"
        },
        {
          "indexed": false,
          "internalType": "uint256",
          "name": "_step",
          "type": "uint256"
        },
        {
          "indexed": false,
          "internalType": "address",
          "name": "_itemAddress",
          "type": "address"
        }
      ],
      "name": "SupplyChainStep",
      "type": "event"
    },
    {
      "inputs": [],
      "name": "_owner",
      "outputs": [
        {
          "internalType": "address payable",
          "name": "",
          "type": "address"
        }
      ],
      "stateMutability": "view",
      "type": "function",
      "constant": true
    },
    {
      "inputs": [],
      "name": "isOwner",
      "outputs": [
        {
          "internalType": "bool",
          "name": "",
          "type": "bool"
        }
      ],
      "stateMutability": "view",
      "type": "function",
      "constant": true
    },
    {
      "inputs": [
        {
          "internalType": "uint256",
          "name": "",
          "type": "uint256"
        }
      ],
      "name": "items",
      "outputs": [
        {
          "internalType": "contract Item",
          "name": "_item",
          "type": "address"
        },
        {
          "internalType": "string",
          "name": "_identifier",
          "type": "string"
        },
        {
          "internalType": "uint256",
          "name": "_itemPrice",
          "type": "uint256"
        },
        {
          "internalType": "string",
          "name": "_content",
          "type": "string"
        },
        {
          "internalType": "enum ItemManager.SupplyChainState",
          "name": "_state",
          "type": "uint8"
        },
        {
          "internalType": "address",
          "name": "_buyer",
          "type": "address"
        },
        {
          "internalType": "uint8",
          "name": "_rating",
          "type": "uint8"
        },
        {
          "internalType": "bool",
          "name": "_isRated",
          "type": "bool"
        }
      ],
      "stateMutability": "view",
      "type": "function",
      "constant": true
    },
    {
      "inputs": [
        {
          "internalType": "string",
          "name": "_identifier",
          "type": "string"
        },
        {
          "internalType": "uint256",
          "name": "_itemPrice",
          "type": "uint256"
        },
        {
          "internalType": "string",
          "name": "_content",
          "type": "string"
        }
      ],
      "name": "createItem",
      "outputs": [],
      "stateMutability": "nonpayable",
      "type": "function"
    },
    {
      "inputs": [
        {
          "internalType": "uint256",
          "name": "_itemIndex",
          "type": "uint256"
        }
      ],
      "name": "triggerPayment",
      "outputs": [],
      "stateMutability": "payable",
      "type": "function",
      "payable": true
    },
    {
      "inputs": [
        {
          "internalType": "uint256",
          "name": "_itemIndex",
          "type": "uint256"
        }
      ],
      "name": "triggerDelivery",
      "outputs": [],
      "stateMutability": "nonpayable",
      "type": "function"
    },
    {
      "inputs": [
        {
          "internalType": "uint256",
          "name": "_itemIndex",
          "type": "uint256"
        },
        {
          "internalType": "uint8",
          "name": "_rating",
          "type": "uint8"
        }
      ],
      "name": "submitRating",
      "outputs": [],
      "stateMutability": "nonpayable",
      "type": "function"
    },
    {
      "inputs": [
        {
          "internalType": "uint256",
          "name": "_itemIndex",
          "type": "uint256"
        }
      ],
      "name": "getRating",
      "outputs": [
        {
          "internalType": "uint8",
          "name": "",
          "type": "uint8"
        }
      ],
      "stateMutability": "view",
      "type": "function",
      "constant": true
    }
  ],
  "bytecode": "0x608060405234801561001057600080fd5b50336000806101000a81548173ffffffffffffffffffffffffffffffffffffffff021916908373ffffffffffffffffffffffffffffffffffffffff1602179055506122d8806100606000396000f3fe608060405260043610620000865760003560e01c8063b0ee0e9f1162000055578063b0ee0e9f1462000137578063b2bdfa7b146200017b578063bfb231d214620001ab578063cd31831e14620001f65762000086565b80633457770d146200008b57806378bd80b614620000b9578063800fb83f14620000e75780638f32d59b1462000107575b600080fd5b3480156200009857600080fd5b50620000b76004803603810190620000b1919062000f21565b62000224565b005b348015620000c657600080fd5b50620000e56004803603810190620000df919062000ff9565b62000439565b005b620001056004803603810190620000ff919062001040565b620006d0565b005b3480156200011457600080fd5b506200011f62000902565b6040516200012e91906200108f565b60405180910390f35b3480156200014457600080fd5b506200016360048036038101906200015d919062001040565b62000959565b604051620001729190620010bd565b60405180910390f35b3480156200018857600080fd5b5062000193620009ec565b604051620001a291906200111f565b60405180910390f35b348015620001b857600080fd5b50620001d76004803603810190620001d1919062001040565b62000a10565b604051620001ed989796959493929190620012e6565b60405180910390f35b3480156200020357600080fd5b506200022260048036038101906200021c919062001040565b62000bdf565b005b60003083600254604051620002399062000d62565b6200024793929190620013bb565b604051809103906000f08015801562000264573d6000803e3d6000fd5b5090508060016000600254815260200190815260200160002060000160006101000a81548173ffffffffffffffffffffffffffffffffffffffff021916908373ffffffffffffffffffffffffffffffffffffffff160217905550836001600060025481526020019081526020016000206001019081620002e5919062001624565b5082600160006002548152602001908152602001600020600201819055508160016000600254815260200190815260200160002060030190816200032a919062001624565b50600060016000600254815260200190815260200160002060040160006101000a81548160ff021916908360028111156200036a576200036962001241565b5b0217905550600060016000600254815260200190815260200160002060040160166101000a81548160ff0219169083151502179055507fa4035636e99f06b7651a604c1019fa4e8779fe68ef27eeb74dff2de348f6199b60025460016000600254815260200190815260200160002060040160009054906101000a900460ff166002811115620003ff57620003fe62001241565b5b8360405162000411939291906200170b565b60405180910390a1600260008154809291906200042e9062001777565b919050555050505050565b6002808111156200044f576200044e62001241565b5b6001600084815260200190815260200160002060040160009054906101000a900460ff16600281111562000488576200048762001241565b5b14620004cb576040517f08c379a0000000000000000000000000000000000000000000000000000000008152600401620004c2906200183a565b60405180910390fd5b6001600083815260200190815260200160002060040160019054906101000a900473ffffffffffffffffffffffffffffffffffffffff1673ffffffffffffffffffffffffffffffffffffffff163373ffffffffffffffffffffffffffffffffffffffff161462000572576040517f08c379a00000000000000000000000000000000000000000000000000000000081526004016200056990620018d2565b60405180910390fd5b60018160ff16101580156200058b575060058160ff1611155b620005cd576040517f08c379a0000000000000000000000000000000000000000000000000000000008152600401620005c49062001944565b60405180910390fd5b6001600083815260200190815260200160002060040160169054906101000a900460ff161562000634576040517f08c379a00000000000000000000000000000000000000000000000000000000081526004016200062b90620019b6565b60405180910390fd5b806001600084815260200190815260200160002060040160156101000a81548160ff021916908360ff160217905550600180600084815260200190815260200160002060040160166101000a81548160ff0219169083151502179055507fb6a9546aac0438dc3a07ddea666e01c2b4d21fb18d98b96397670c2f7cd1ed7b8282604051620006c4929190620019d8565b60405180910390a15050565b346001600083815260200190815260200160002060020154146200072b576040517f08c379a0000000000000000000000000000000000000000000000000000000008152600401620007229062001a55565b60405180910390fd5b6000600281111562000742576200074162001241565b5b6001600083815260200190815260200160002060040160009054906101000a900460ff1660028111156200077b576200077a62001241565b5b14620007be576040517f08c379a0000000000000000000000000000000000000000000000000000000008152600401620007b59062001ac7565b60405180910390fd5b600180600083815260200190815260200160002060040160006101000a81548160ff02191690836002811115620007fa57620007f962001241565b5b0217905550336001600083815260200190815260200160002060040160016101000a81548173ffffffffffffffffffffffffffffffffffffffff021916908373ffffffffffffffffffffffffffffffffffffffff1602179055507fa4035636e99f06b7651a604c1019fa4e8779fe68ef27eeb74dff2de348f6199b816001600084815260200190815260200160002060040160009054906101000a900460ff166002811115620008af57620008ae62001241565b5b6001600085815260200190815260200160002060000160009054906101000a900473ffffffffffffffffffffffffffffffffffffffff16604051620008f7939291906200170b565b60405180910390a150565b60008060009054906101000a900473ffffffffffffffffffffffffffffffffffffffff1673ffffffffffffffffffffffffffffffffffffffff163373ffffffffffffffffffffffffffffffffffffffff1614905090565b60006001600083815260200190815260200160002060040160169054906101000a900460ff16620009c1576040517f08c379a0000000000000000000000000000000000000000000000000000000008152600401620009b89062001b39565b60405180910390fd5b6001600083815260200190815260200160002060040160159054906101000a900460ff169050919050565b60008054906101000a900473ffffffffffffffffffffffffffffffffffffffff1681565b60016020528060005260406000206000915090508060000160009054906101000a900473ffffffffffffffffffffffffffffffffffffffff169080600101805462000a5b9062001427565b80601f016020809104026020016040519081016040528092919081815260200182805462000a899062001427565b801562000ada5780601f1062000aae5761010080835404028352916020019162000ada565b820191906000526020600020905b81548152906001019060200180831162000abc57829003601f168201915b50505050509080600201549080600301805462000af79062001427565b80601f016020809104026020016040519081016040528092919081815260200182805462000b259062001427565b801562000b765780601f1062000b4a5761010080835404028352916020019162000b76565b820191906000526020600020905b81548152906001019060200180831162000b5857829003601f168201915b5050505050908060040160009054906101000a900460ff16908060040160019054906101000a900473ffffffffffffffffffffffffffffffffffffffff16908060040160159054906101000a900460ff16908060040160169054906101000a900460ff16905088565b6001600281111562000bf65762000bf562001241565b5b6001600083815260200190815260200160002060040160009054906101000a900460ff16600281111562000c2f5762000c2e62001241565b5b1462000c72576040517f08c379a000000000000000000000000000000000000000000000000000000000815260040162000c699062001ac7565b60405180910390fd5b60026001600083815260200190815260200160002060040160006101000a81548160ff0219169083600281111562000caf5762000cae62001241565b5b02179055507fa4035636e99f06b7651a604c1019fa4e8779fe68ef27eeb74dff2de348f6199b816001600084815260200190815260200160002060040160009054906101000a900460ff16600281111562000d0f5762000d0e62001241565b5b6001600085815260200190815260200160002060000160009054906101000a900473ffffffffffffffffffffffffffffffffffffffff1660405162000d57939291906200170b565b60405180910390a150565b6107478062001b5c83390190565b6000604051905090565b600080fd5b600080fd5b600080fd5b600080fd5b6000601f19601f8301169050919050565b7f4e487b7100000000000000000000000000000000000000000000000000000000600052604160045260246000fd5b62000dd98262000d8e565b810181811067ffffffffffffffff8211171562000dfb5762000dfa62000d9f565b5b80604052505050565b600062000e1062000d70565b905062000e1e828262000dce565b919050565b600067ffffffffffffffff82111562000e415762000e4062000d9f565b5b62000e4c8262000d8e565b9050602081019050919050565b82818337600083830152505050565b600062000e7f62000e798462000e23565b62000e04565b90508281526020810184848401111562000e9e5762000e9d62000d89565b5b62000eab84828562000e59565b509392505050565b600082601f83011262000ecb5762000eca62000d84565b5b813562000edd84826020860162000e68565b91505092915050565b6000819050919050565b62000efb8162000ee6565b811462000f0757600080fd5b50565b60008135905062000f1b8162000ef0565b92915050565b60008060006060848603121562000f3d5762000f3c62000d7a565b5b600084013567ffffffffffffffff81111562000f5e5762000f5d62000d7f565b5b62000f6c8682870162000eb3565b935050602062000f7f8682870162000f0a565b925050604084013567ffffffffffffffff81111562000fa35762000fa262000d7f565b5b62000fb18682870162000eb3565b9150509250925092565b600060ff82169050919050565b62000fd38162000fbb565b811462000fdf57600080fd5b50565b60008135905062000ff38162000fc8565b92915050565b6000806040838503121562001013576200101262000d7a565b5b6000620010238582860162000f0a565b9250506020620010368582860162000fe2565b9150509250929050565b60006020828403121562001059576200105862000d7a565b5b6000620010698482850162000f0a565b91505092915050565b60008115159050919050565b620010898162001072565b82525050565b6000602082019050620010a660008301846200107e565b92915050565b620010b78162000fbb565b82525050565b6000602082019050620010d46000830184620010ac565b92915050565b600073ffffffffffffffffffffffffffffffffffffffff82169050919050565b60006200110782620010da565b9050919050565b6200111981620010fa565b82525050565b60006020820190506200113660008301846200110e565b92915050565b6000819050919050565b600062001167620011616200115b84620010da565b6200113c565b620010da565b9050919050565b60006200117b8262001146565b9050919050565b60006200118f826200116e565b9050919050565b620011a18162001182565b82525050565b600081519050919050565b600082825260208201905092915050565b60005b83811015620011e3578082015181840152602081019050620011c6565b60008484015250505050565b6000620011fc82620011a7565b620012088185620011b2565b93506200121a818560208601620011c3565b620012258162000d8e565b840191505092915050565b6200123b8162000ee6565b82525050565b7f4e487b7100000000000000000000000000000000000000000000000000000000600052602160045260246000fd5b6003811062001284576200128362001241565b5b50565b6000819050620012978262001270565b919050565b6000620012a98262001287565b9050919050565b620012bb816200129c565b82525050565b6000620012ce82620010da565b9050919050565b620012e081620012c1565b82525050565b600061010082019050620012fe600083018b62001196565b818103602083015262001312818a620011ef565b905062001323604083018962001230565b8181036060830152620013378188620011ef565b9050620013486080830187620012b0565b6200135760a0830186620012d5565b6200136660c0830185620010ac565b6200137560e08301846200107e565b9998505050505050505050565b60006200138f8262001146565b9050919050565b6000620013a38262001382565b9050919050565b620013b58162001396565b82525050565b6000606082019050620013d26000830186620013aa565b620013e1602083018562001230565b620013f0604083018462001230565b949350505050565b7f4e487b7100000000000000000000000000000000000000000000000000000000600052602260045260246000fd5b600060028204905060018216806200144057607f821691505b602082108103620014565762001455620013f8565b5b50919050565b60008190508160005260206000209050919050565b60006020601f8301049050919050565b600082821b905092915050565b600060088302620014c07fffffffffffffffffffffffffffffffffffffffffffffffffffffffffffffffff8262001481565b620014cc868362001481565b95508019841693508086168417925050509392505050565b600062001505620014ff620014f98462000ee6565b6200113c565b62000ee6565b9050919050565b6000819050919050565b6200152183620014e4565b6200153962001530826200150c565b8484546200148e565b825550505050565b600090565b6200155062001541565b6200155d81848462001516565b505050565b5b8181101562001585576200157960008262001546565b60018101905062001563565b5050565b601f821115620015d4576200159e816200145c565b620015a98462001471565b81016020851015620015b9578190505b620015d1620015c88562001471565b83018262001562565b50505b505050565b600082821c905092915050565b6000620015f960001984600802620015d9565b1980831691505092915050565b6000620016148383620015e6565b9150826002028217905092915050565b6200162f82620011a7565b67ffffffffffffffff8111156200164b576200164a62000d9f565b5b62001657825462001427565b6200166482828562001589565b600060209050601f8311600181146200169c576000841562001687578287015190505b62001693858262001606565b86555062001703565b601f198416620016ac866200145c565b60005b82811015620016d657848901518255600182019150602085019450602081019050620016af565b86831015620016f65784890151620016f2601f891682620015e6565b8355505b6001600288020188555050505b505050505050565b600060608201905062001722600083018662001230565b62001731602083018562001230565b620017406040830184620012d5565b949350505050565b7f4e487b7100000000000000000000000000000000000000000000000000000000600052601160045260246000fd5b6000620017848262000ee6565b91507fffffffffffffffffffffffffffffffffffffffffffffffffffffffffffffffff8203620017b957620017b862001748565b5b600182019050919050565b7f4974656d206d7573742062652064656c69766572656420746f2062652072617460008201527f6564210000000000000000000000000000000000000000000000000000000000602082015250565b600062001822602383620011b2565b91506200182f82620017c4565b604082019050919050565b60006020820190508181036000830152620018558162001813565b9050919050565b7f4f6e6c79207468652062757965722063616e207375626d69742061207261746960008201527f6e67210000000000000000000000000000000000000000000000000000000000602082015250565b6000620018ba602383620011b2565b9150620018c7826200185c565b604082019050919050565b60006020820190508181036000830152620018ed81620018ab565b9050919050565b7f526174696e67206d757374206265206265747765656e203120616e6420352100600082015250565b60006200192c601f83620011b2565b91506200193982620018f4565b602082019050919050565b600060208201905081810360008301526200195f816200191d565b9050919050565b7f4974656d2068617320616c7265616479206265656e2072617465642100000000600082015250565b60006200199e601c83620011b2565b9150620019ab8262001966565b602082019050919050565b60006020820190508181036000830152620019d1816200198f565b9050919050565b6000604082019050620019ef600083018562001230565b620019fe6020830184620010ac565b9392505050565b7f4f6e6c792066756c6c207061796d656e74732061636365707465642100000000600082015250565b600062001a3d601c83620011b2565b915062001a4a8262001a05565b602082019050919050565b6000602082019050818103600083015262001a708162001a2e565b9050919050565b7f4974656d206973206675727468657220696e2074686520636861696e21000000600082015250565b600062001aaf601d83620011b2565b915062001abc8262001a77565b602082019050919050565b6000602082019050818103600083015262001ae28162001aa0565b9050919050565b7f4974656d20686173206e6f74206265656e207261746564207965742100000000600082015250565b600062001b21601c83620011b2565b915062001b2e8262001ae9565b602082019050919050565b6000602082019050818103600083015262001b548162001b12565b905091905056fe608060405234801561001057600080fd5b5060405161074738038061074783398181016040528101906100329190610134565b816000819055508060028190555082600360006101000a81548173ffffffffffffffffffffffffffffffffffffffff021916908373ffffffffffffffffffffffffffffffffffffffff160217905550505050610187565b600080fd5b600073ffffffffffffffffffffffffffffffffffffffff82169050919050565b60006100b98261008e565b9050919050565b60006100cb826100ae565b9050919050565b6100db816100c0565b81146100e657600080fd5b50565b6000815190506100f8816100d2565b92915050565b6000819050919050565b610111816100fe565b811461011c57600080fd5b50565b60008151905061012e81610108565b92915050565b60008060006060848603121561014d5761014c610089565b5b600061015b868287016100e9565b935050602061016c8682870161011f565b925050604061017d8682870161011f565b9150509250925092565b6105b1806101966000396000f3fe6080604052600436106100385760003560e01c80632986c0e51461024e5780633c8da5881461027957806389794d00146102a457610240565b3661024057600060015414610082576040517f08c379a00000000000000000000000000000000000000000000000000000000081526004016100799061033e565b60405180910390fd5b34600054146100c6576040517f08c379a00000000000000000000000000000000000000000000000000000000081526004016100bd906103aa565b60405180910390fd5b34600160008282546100d89190610403565b925050819055506000600360009054906101000a900473ffffffffffffffffffffffffffffffffffffffff1673ffffffffffffffffffffffffffffffffffffffff163460025460405160240161012e9190610446565b6040516020818303038152906040527f800fb83f000000000000000000000000000000000000000000000000000000007bffffffffffffffffffffffffffffffffffffffffffffffffffffffff19166020820180517bffffffffffffffffffffffffffffffffffffffffffffffffffffffff83818316178352505050506040516101b891906104d2565b60006040518083038185875af1925050503d80600081146101f5576040519150601f19603f3d011682016040523d82523d6000602084013e6101fa565b606091505b505090508061023e576040517f08c379a00000000000000000000000000000000000000000000000000000000081526004016102359061055b565b60405180910390fd5b005b34801561024c57600080fd5b005b34801561025a57600080fd5b506102636102cf565b6040516102709190610446565b60405180910390f35b34801561028557600080fd5b5061028e6102d5565b60405161029b9190610446565b60405180910390f35b3480156102b057600080fd5b506102b96102db565b6040516102c69190610446565b60405180910390f35b60025481565b60005481565b60015481565b600082825260208201905092915050565b7f4974656d206973207061696420616c7265616479210000000000000000000000600082015250565b60006103286015836102e1565b9150610333826102f2565b602082019050919050565b600060208201905081810360008301526103578161031b565b9050919050565b7f4f6e6c792066756c6c207061796d656e747320616c6c6f776564000000000000600082015250565b6000610394601a836102e1565b915061039f8261035e565b602082019050919050565b600060208201905081810360008301526103c381610387565b9050919050565b6000819050919050565b7f4e487b7100000000000000000000000000000000000000000000000000000000600052601160045260246000fd5b600061040e826103ca565b9150610419836103ca565b9250828201905080821115610431576104306103d4565b5b92915050565b610440816103ca565b82525050565b600060208201905061045b6000830184610437565b92915050565b600081519050919050565b600081905092915050565b60005b8381101561049557808201518184015260208101905061047a565b60008484015250505050565b60006104ac82610461565b6104b6818561046c565b93506104c6818560208601610477565b80840191505092915050565b60006104de82846104a1565b915081905092915050565b7f546865207472616e73616374696f6e207761736e27742073756363657373667560008201527f6c2c2063616e63656c6c696e6700000000000000000000000000000000000000602082015250565b6000610545602d836102e1565b9150610550826104e9565b604082019050919050565b6000602082019050818103600083015261057481610538565b905091905056fea26469706673582212209532ca9215e5f48359095734c4e72d20297e21ed7d49673e467f3adaaa6c344d64736f6c63430008120033a2646970667358221220d811bc8689934de38eb3c3288827dbc3f2de562978f0cb77421e74eb27f49a3f64736f6c63430008120033",
  "immutableReferences": {},
  "source": "// SPDX-License-Identifier: UNLICENSED\r\npragma solidity ^0.8.18;\r\n\r\nimport \"./Ownable.sol\";\r\nimport \"./Item.sol\";\r\n\r\ncontract ItemManager is Ownable {\r\n    enum SupplyChainState {Created, Paid, Delivered}\r\n\r\n    struct S_Item {\r\n        Item _item;\r\n        string _identifier;\r\n        uint _itemPrice;\r\n        string _content;\r\n        SupplyChainState _state;\r\n        address _buyer; \r\n        uint8 _rating; \r\n        bool _isRated;  \r\n    }\r\n\r\n    mapping(uint => S_Item) public items;\r\n    uint itemIndex;\r\n    \r\n    event SupplyChainStep(uint _itemIndex, uint _step, address _itemAddress);\r\n    event ItemRated(uint _itemIndex, uint8 _rating); \r\n\r\n    function createItem(string memory _identifier, uint _itemPrice, string memory _content) public {\r\n        Item item = new Item(this, _itemPrice, itemIndex);\r\n        items[itemIndex]._item = item;\r\n        items[itemIndex]._identifier = _identifier;\r\n        items[itemIndex]._itemPrice = _itemPrice;\r\n        items[itemIndex]._content = _content;\r\n        items[itemIndex]._state = SupplyChainState.Created;\r\n        items[itemIndex]._isRated = false; \r\n        emit SupplyChainStep(itemIndex, uint(items[itemIndex]._state), address(item));\r\n        itemIndex++;\r\n    }\r\n\r\n    function triggerPayment(uint _itemIndex) public payable {\r\n        require(items[_itemIndex]._itemPrice == msg.value, \"Only full payments accepted!\");\r\n        require(items[_itemIndex]._state == SupplyChainState.Created, \"Item is further in the chain!\");\r\n        \r\n        items[_itemIndex]._state = SupplyChainState.Paid;\r\n        items[_itemIndex]._buyer = msg.sender; \r\n        emit SupplyChainStep(_itemIndex, uint(items[_itemIndex]._state), address(items[_itemIndex]._item));\r\n    }\r\n\r\n    function triggerDelivery(uint _itemIndex) public {\r\n        require(items[_itemIndex]._state == SupplyChainState.Paid, \"Item is further in the chain!\");\r\n        \r\n        items[_itemIndex]._state = SupplyChainState.Delivered;\r\n        emit SupplyChainStep(_itemIndex, uint(items[_itemIndex]._state), address(items[_itemIndex]._item));\r\n    }\r\n\r\n    function submitRating(uint _itemIndex, uint8 _rating) public {\r\n        require(items[_itemIndex]._state == SupplyChainState.Delivered, \"Item must be delivered to be rated!\");\r\n        require(msg.sender == items[_itemIndex]._buyer, \"Only the buyer can submit a rating!\");\r\n        require(_rating >= 1 && _rating <= 5, \"Rating must be between 1 and 5!\");\r\n        require(!items[_itemIndex]._isRated, \"Item has already been rated!\");\r\n\r\n        items[_itemIndex]._rating = _rating;\r\n        items[_itemIndex]._isRated = true; \r\n        emit ItemRated(_itemIndex, _rating); \r\n    }\r\n\r\n    function getRating(uint _itemIndex) public view returns (uint8) {\r\n        require(items[_itemIndex]._isRated, \"Item has not been rated yet!\");\r\n        return items[_itemIndex]._rating;\r\n    }\r\n}\r\n",
  "sourcePath": "E:\\Blockchain\\reactbox\\contracts\\ItemManager.sol",
  "compiler": {
    "name": "solc",
    "version": "0.8.18+commit.87f61d96.Emscripten.clang"
  },
  "schemaVersion": "3.4.16",
  "updatedAt": "2024-10-21T03:42:58.885Z",
  "networkType": "ethereum",
  "devdoc": {
    "kind": "dev",
    "methods": {},
    "version": 1
  },
  "userdoc": {
    "kind": "user",
    "methods": {},
    "version": 1
  }
}