{
  "contractName": "ItemManager",
  "abi": [
    {
      "anonymous": false,
      "inputs": [
        {
          "indexed": false,
          "internalType": "uint256",
          "name": "_itemIndex",
          "type": "uint256"
        },
        {
          "indexed": false,
          "internalType": "uint8",
          "name": "_rating",
          "type": "uint8"
        }
      ],
      "name": "ItemRated",
      "type": "event"
    },
    {
      "anonymous": false,
      "inputs": [
        {
          "indexed": false,
          "internalType": "uint256",
          "name": "_itemIndex",
          "type": "uint256"
        },
        {
          "indexed": false,
          "internalType": "uint256",
          "name": "_step",
          "type": "uint256"
        },
        {
          "indexed": false,
          "internalType": "address",
          "name": "_itemAddress",
          "type": "address"
        }
      ],
      "name": "SupplyChainStep",
      "type": "event"
    },
    {
      "inputs": [],
      "name": "_owner",
      "outputs": [
        {
          "internalType": "address payable",
          "name": "",
          "type": "address"
        }
      ],
      "stateMutability": "view",
      "type": "function",
      "constant": true
    },
    {
      "inputs": [],
      "name": "isOwner",
      "outputs": [
        {
          "internalType": "bool",
          "name": "",
          "type": "bool"
        }
      ],
      "stateMutability": "view",
      "type": "function",
      "constant": true
    },
    {
      "inputs": [
        {
          "internalType": "uint256",
          "name": "",
          "type": "uint256"
        }
      ],
      "name": "items",
      "outputs": [
        {
          "internalType": "contract Item",
          "name": "_item",
          "type": "address"
        },
        {
          "internalType": "string",
          "name": "_identifier",
          "type": "string"
        },
        {
          "internalType": "uint256",
          "name": "_itemPrice",
          "type": "uint256"
        },
        {
          "internalType": "enum ItemManager.SupplyChainState",
          "name": "_state",
          "type": "uint8"
        },
        {
          "internalType": "address",
          "name": "_buyer",
          "type": "address"
        },
        {
          "internalType": "uint8",
          "name": "_rating",
          "type": "uint8"
        },
        {
          "internalType": "bool",
          "name": "_isRated",
          "type": "bool"
        }
      ],
      "stateMutability": "view",
      "type": "function",
      "constant": true
    },
    {
      "inputs": [
        {
          "internalType": "string",
          "name": "_identifier",
          "type": "string"
        },
        {
          "internalType": "uint256",
          "name": "_itemPrice",
          "type": "uint256"
        }
      ],
      "name": "createItem",
      "outputs": [],
      "stateMutability": "nonpayable",
      "type": "function"
    },
    {
      "inputs": [
        {
          "internalType": "uint256",
          "name": "_itemIndex",
          "type": "uint256"
        }
      ],
      "name": "triggerPayment",
      "outputs": [],
      "stateMutability": "payable",
      "type": "function",
      "payable": true
    },
    {
      "inputs": [
        {
          "internalType": "uint256",
          "name": "_itemIndex",
          "type": "uint256"
        }
      ],
      "name": "triggerDelivery",
      "outputs": [],
      "stateMutability": "nonpayable",
      "type": "function"
    },
    {
      "inputs": [
        {
          "internalType": "uint256",
          "name": "_itemIndex",
          "type": "uint256"
        },
        {
          "internalType": "uint8",
          "name": "_rating",
          "type": "uint8"
        }
      ],
      "name": "submitRating",
      "outputs": [],
      "stateMutability": "nonpayable",
      "type": "function"
    },
    {
      "inputs": [
        {
          "internalType": "uint256",
          "name": "_itemIndex",
          "type": "uint256"
        }
      ],
      "name": "getRating",
      "outputs": [
        {
          "internalType": "uint8",
          "name": "",
          "type": "uint8"
        }
      ],
      "stateMutability": "view",
      "type": "function",
      "constant": true
    }
  ],
  "bytecode": "0x608060405234801561001057600080fd5b50336000806101000a81548173ffffffffffffffffffffffffffffffffffffffff021916908373ffffffffffffffffffffffffffffffffffffffff1602179055506121cc806100606000396000f3fe608060405260043610620000865760003560e01c8063b0ee0e9f1162000055578063b0ee0e9f1462000137578063b2bdfa7b146200017b578063bfb231d214620001ab578063cd31831e14620001f55762000086565b806378bd80b6146200008b578063800fb83f14620000b95780638c55174214620000d95780638f32d59b1462000107575b600080fd5b3480156200009857600080fd5b50620000b76004803603810190620000b1919062000d3d565b62000223565b005b620000d76004803603810190620000d1919062000d84565b620004ba565b005b348015620000e657600080fd5b50620001056004803603810190620000ff919062000f18565b620006ec565b005b3480156200011457600080fd5b506200011f620008d8565b6040516200012e919062000f9b565b60405180910390f35b3480156200014457600080fd5b506200016360048036038101906200015d919062000d84565b6200092f565b60405162000172919062000fc9565b60405180910390f35b3480156200018857600080fd5b5062000193620009c2565b604051620001a291906200102b565b60405180910390f35b348015620001b857600080fd5b50620001d76004803603810190620001d1919062000d84565b620009e6565b604051620001ec9796959493929190620011f2565b60405180910390f35b3480156200020257600080fd5b506200022160048036038101906200021b919062000d84565b62000b1f565b005b6002808111156200023957620002386200114d565b5b6001600084815260200190815260200160002060030160009054906101000a900460ff1660028111156200027257620002716200114d565b5b14620002b5576040517f08c379a0000000000000000000000000000000000000000000000000000000008152600401620002ac90620012ec565b60405180910390fd5b6001600083815260200190815260200160002060030160019054906101000a900473ffffffffffffffffffffffffffffffffffffffff1673ffffffffffffffffffffffffffffffffffffffff163373ffffffffffffffffffffffffffffffffffffffff16146200035c576040517f08c379a0000000000000000000000000000000000000000000000000000000008152600401620003539062001384565b60405180910390fd5b60018160ff161015801562000375575060058160ff1611155b620003b7576040517f08c379a0000000000000000000000000000000000000000000000000000000008152600401620003ae90620013f6565b60405180910390fd5b6001600083815260200190815260200160002060030160169054906101000a900460ff16156200041e576040517f08c379a0000000000000000000000000000000000000000000000000000000008152600401620004159062001468565b60405180910390fd5b806001600084815260200190815260200160002060030160156101000a81548160ff021916908360ff160217905550600180600084815260200190815260200160002060030160166101000a81548160ff0219169083151502179055507fb6a9546aac0438dc3a07ddea666e01c2b4d21fb18d98b96397670c2f7cd1ed7b8282604051620004ae9291906200148a565b60405180910390a15050565b3460016000838152602001908152602001600020600201541462000515576040517f08c379a00000000000000000000000000000000000000000000000000000000081526004016200050c9062001507565b60405180910390fd5b600060028111156200052c576200052b6200114d565b5b6001600083815260200190815260200160002060030160009054906101000a900460ff1660028111156200056557620005646200114d565b5b14620005a8576040517f08c379a00000000000000000000000000000000000000000000000000000000081526004016200059f9062001579565b60405180910390fd5b600180600083815260200190815260200160002060030160006101000a81548160ff02191690836002811115620005e457620005e36200114d565b5b0217905550336001600083815260200190815260200160002060030160016101000a81548173ffffffffffffffffffffffffffffffffffffffff021916908373ffffffffffffffffffffffffffffffffffffffff1602179055507fa4035636e99f06b7651a604c1019fa4e8779fe68ef27eeb74dff2de348f6199b816001600084815260200190815260200160002060030160009054906101000a900460ff1660028111156200069957620006986200114d565b5b6001600085815260200190815260200160002060000160009054906101000a900473ffffffffffffffffffffffffffffffffffffffff16604051620006e1939291906200159b565b60405180910390a150565b60003082600254604051620007019062000ca2565b6200070f9392919062001611565b604051809103906000f0801580156200072c573d6000803e3d6000fd5b5090508060016000600254815260200190815260200160002060000160006101000a81548173ffffffffffffffffffffffffffffffffffffffff021916908373ffffffffffffffffffffffffffffffffffffffff160217905550826001600060025481526020019081526020016000206001019081620007ad91906200187a565b508160016000600254815260200190815260200160002060020181905550600060016000600254815260200190815260200160002060030160006101000a81548160ff021916908360028111156200080a57620008096200114d565b5b0217905550600060016000600254815260200190815260200160002060030160166101000a81548160ff0219169083151502179055507fa4035636e99f06b7651a604c1019fa4e8779fe68ef27eeb74dff2de348f6199b60025460016000600254815260200190815260200160002060030160009054906101000a900460ff1660028111156200089f576200089e6200114d565b5b83604051620008b1939291906200159b565b60405180910390a160026000815480929190620008ce9062001990565b9190505550505050565b60008060009054906101000a900473ffffffffffffffffffffffffffffffffffffffff1673ffffffffffffffffffffffffffffffffffffffff163373ffffffffffffffffffffffffffffffffffffffff1614905090565b60006001600083815260200190815260200160002060030160169054906101000a900460ff1662000997576040517f08c379a00000000000000000000000000000000000000000000000000000000081526004016200098e9062001a2d565b60405180910390fd5b6001600083815260200190815260200160002060030160159054906101000a900460ff169050919050565b60008054906101000a900473ffffffffffffffffffffffffffffffffffffffff1681565b60016020528060005260406000206000915090508060000160009054906101000a900473ffffffffffffffffffffffffffffffffffffffff169080600101805462000a31906200167d565b80601f016020809104026020016040519081016040528092919081815260200182805462000a5f906200167d565b801562000ab05780601f1062000a845761010080835404028352916020019162000ab0565b820191906000526020600020905b81548152906001019060200180831162000a9257829003601f168201915b5050505050908060020154908060030160009054906101000a900460ff16908060030160019054906101000a900473ffffffffffffffffffffffffffffffffffffffff16908060030160159054906101000a900460ff16908060030160169054906101000a900460ff16905087565b6001600281111562000b365762000b356200114d565b5b6001600083815260200190815260200160002060030160009054906101000a900460ff16600281111562000b6f5762000b6e6200114d565b5b1462000bb2576040517f08c379a000000000000000000000000000000000000000000000000000000000815260040162000ba99062001579565b60405180910390fd5b60026001600083815260200190815260200160002060030160006101000a81548160ff0219169083600281111562000bef5762000bee6200114d565b5b02179055507fa4035636e99f06b7651a604c1019fa4e8779fe68ef27eeb74dff2de348f6199b816001600084815260200190815260200160002060030160009054906101000a900460ff16600281111562000c4f5762000c4e6200114d565b5b6001600085815260200190815260200160002060000160009054906101000a900473ffffffffffffffffffffffffffffffffffffffff1660405162000c97939291906200159b565b60405180910390a150565b6107478062001a5083390190565b6000604051905090565b600080fd5b600080fd5b6000819050919050565b62000cd98162000cc4565b811462000ce557600080fd5b50565b60008135905062000cf98162000cce565b92915050565b600060ff82169050919050565b62000d178162000cff565b811462000d2357600080fd5b50565b60008135905062000d378162000d0c565b92915050565b6000806040838503121562000d575762000d5662000cba565b5b600062000d678582860162000ce8565b925050602062000d7a8582860162000d26565b9150509250929050565b60006020828403121562000d9d5762000d9c62000cba565b5b600062000dad8482850162000ce8565b91505092915050565b600080fd5b600080fd5b6000601f19601f8301169050919050565b7f4e487b7100000000000000000000000000000000000000000000000000000000600052604160045260246000fd5b62000e0b8262000dc0565b810181811067ffffffffffffffff8211171562000e2d5762000e2c62000dd1565b5b80604052505050565b600062000e4262000cb0565b905062000e50828262000e00565b919050565b600067ffffffffffffffff82111562000e735762000e7262000dd1565b5b62000e7e8262000dc0565b9050602081019050919050565b82818337600083830152505050565b600062000eb162000eab8462000e55565b62000e36565b90508281526020810184848401111562000ed05762000ecf62000dbb565b5b62000edd84828562000e8b565b509392505050565b600082601f83011262000efd5762000efc62000db6565b5b813562000f0f84826020860162000e9a565b91505092915050565b6000806040838503121562000f325762000f3162000cba565b5b600083013567ffffffffffffffff81111562000f535762000f5262000cbf565b5b62000f618582860162000ee5565b925050602062000f748582860162000ce8565b9150509250929050565b60008115159050919050565b62000f958162000f7e565b82525050565b600060208201905062000fb2600083018462000f8a565b92915050565b62000fc38162000cff565b82525050565b600060208201905062000fe0600083018462000fb8565b92915050565b600073ffffffffffffffffffffffffffffffffffffffff82169050919050565b6000620010138262000fe6565b9050919050565b620010258162001006565b82525050565b60006020820190506200104260008301846200101a565b92915050565b6000819050919050565b6000620010736200106d620010678462000fe6565b62001048565b62000fe6565b9050919050565b6000620010878262001052565b9050919050565b60006200109b826200107a565b9050919050565b620010ad816200108e565b82525050565b600081519050919050565b600082825260208201905092915050565b60005b83811015620010ef578082015181840152602081019050620010d2565b60008484015250505050565b60006200110882620010b3565b620011148185620010be565b935062001126818560208601620010cf565b620011318162000dc0565b840191505092915050565b620011478162000cc4565b82525050565b7f4e487b7100000000000000000000000000000000000000000000000000000000600052602160045260246000fd5b6003811062001190576200118f6200114d565b5b50565b6000819050620011a3826200117c565b919050565b6000620011b58262001193565b9050919050565b620011c781620011a8565b82525050565b6000620011da8262000fe6565b9050919050565b620011ec81620011cd565b82525050565b600060e08201905062001209600083018a620010a2565b81810360208301526200121d8189620010fb565b90506200122e60408301886200113c565b6200123d6060830187620011bc565b6200124c6080830186620011e1565b6200125b60a083018562000fb8565b6200126a60c083018462000f8a565b98975050505050505050565b7f4974656d206d7573742062652064656c69766572656420746f2062652072617460008201527f6564210000000000000000000000000000000000000000000000000000000000602082015250565b6000620012d4602383620010be565b9150620012e18262001276565b604082019050919050565b600060208201905081810360008301526200130781620012c5565b9050919050565b7f4f6e6c79207468652062757965722063616e207375626d69742061207261746960008201527f6e67210000000000000000000000000000000000000000000000000000000000602082015250565b60006200136c602383620010be565b915062001379826200130e565b604082019050919050565b600060208201905081810360008301526200139f816200135d565b9050919050565b7f526174696e67206d757374206265206265747765656e203120616e6420352100600082015250565b6000620013de601f83620010be565b9150620013eb82620013a6565b602082019050919050565b600060208201905081810360008301526200141181620013cf565b9050919050565b7f4974656d2068617320616c7265616479206265656e2072617465642100000000600082015250565b600062001450601c83620010be565b91506200145d8262001418565b602082019050919050565b60006020820190508181036000830152620014838162001441565b9050919050565b6000604082019050620014a160008301856200113c565b620014b0602083018462000fb8565b9392505050565b7f4f6e6c792066756c6c207061796d656e74732061636365707465642100000000600082015250565b6000620014ef601c83620010be565b9150620014fc82620014b7565b602082019050919050565b600060208201905081810360008301526200152281620014e0565b9050919050565b7f4974656d206973206675727468657220696e2074686520636861696e21000000600082015250565b600062001561601d83620010be565b91506200156e8262001529565b602082019050919050565b60006020820190508181036000830152620015948162001552565b9050919050565b6000606082019050620015b260008301866200113c565b620015c160208301856200113c565b620015d06040830184620011e1565b949350505050565b6000620015e58262001052565b9050919050565b6000620015f982620015d8565b9050919050565b6200160b81620015ec565b82525050565b600060608201905062001628600083018662001600565b6200163760208301856200113c565b6200164660408301846200113c565b949350505050565b7f4e487b7100000000000000000000000000000000000000000000000000000000600052602260045260246000fd5b600060028204905060018216806200169657607f821691505b602082108103620016ac57620016ab6200164e565b5b50919050565b60008190508160005260206000209050919050565b60006020601f8301049050919050565b600082821b905092915050565b600060088302620017167fffffffffffffffffffffffffffffffffffffffffffffffffffffffffffffffff82620016d7565b620017228683620016d7565b95508019841693508086168417925050509392505050565b60006200175b620017556200174f8462000cc4565b62001048565b62000cc4565b9050919050565b6000819050919050565b62001777836200173a565b6200178f620017868262001762565b848454620016e4565b825550505050565b600090565b620017a662001797565b620017b38184846200176c565b505050565b5b81811015620017db57620017cf6000826200179c565b600181019050620017b9565b5050565b601f8211156200182a57620017f481620016b2565b620017ff84620016c7565b810160208510156200180f578190505b620018276200181e85620016c7565b830182620017b8565b50505b505050565b600082821c905092915050565b60006200184f600019846008026200182f565b1980831691505092915050565b60006200186a83836200183c565b9150826002028217905092915050565b6200188582620010b3565b67ffffffffffffffff811115620018a157620018a062000dd1565b5b620018ad82546200167d565b620018ba828285620017df565b600060209050601f831160018114620018f25760008415620018dd578287015190505b620018e985826200185c565b86555062001959565b601f1984166200190286620016b2565b60005b828110156200192c5784890151825560018201915060208501945060208101905062001905565b868310156200194c578489015162001948601f8916826200183c565b8355505b6001600288020188555050505b505050505050565b7f4e487b7100000000000000000000000000000000000000000000000000000000600052601160045260246000fd5b60006200199d8262000cc4565b91507fffffffffffffffffffffffffffffffffffffffffffffffffffffffffffffffff8203620019d257620019d162001961565b5b600182019050919050565b7f4974656d20686173206e6f74206265656e207261746564207965742100000000600082015250565b600062001a15601c83620010be565b915062001a2282620019dd565b602082019050919050565b6000602082019050818103600083015262001a488162001a06565b905091905056fe608060405234801561001057600080fd5b5060405161074738038061074783398181016040528101906100329190610134565b816000819055508060028190555082600360006101000a81548173ffffffffffffffffffffffffffffffffffffffff021916908373ffffffffffffffffffffffffffffffffffffffff160217905550505050610187565b600080fd5b600073ffffffffffffffffffffffffffffffffffffffff82169050919050565b60006100b98261008e565b9050919050565b60006100cb826100ae565b9050919050565b6100db816100c0565b81146100e657600080fd5b50565b6000815190506100f8816100d2565b92915050565b6000819050919050565b610111816100fe565b811461011c57600080fd5b50565b60008151905061012e81610108565b92915050565b60008060006060848603121561014d5761014c610089565b5b600061015b868287016100e9565b935050602061016c8682870161011f565b925050604061017d8682870161011f565b9150509250925092565b6105b1806101966000396000f3fe6080604052600436106100385760003560e01c80632986c0e51461024e5780633c8da5881461027957806389794d00146102a457610240565b3661024057600060015414610082576040517f08c379a00000000000000000000000000000000000000000000000000000000081526004016100799061033e565b60405180910390fd5b34600054146100c6576040517f08c379a00000000000000000000000000000000000000000000000000000000081526004016100bd906103aa565b60405180910390fd5b34600160008282546100d89190610403565b925050819055506000600360009054906101000a900473ffffffffffffffffffffffffffffffffffffffff1673ffffffffffffffffffffffffffffffffffffffff163460025460405160240161012e9190610446565b6040516020818303038152906040527f800fb83f000000000000000000000000000000000000000000000000000000007bffffffffffffffffffffffffffffffffffffffffffffffffffffffff19166020820180517bffffffffffffffffffffffffffffffffffffffffffffffffffffffff83818316178352505050506040516101b891906104d2565b60006040518083038185875af1925050503d80600081146101f5576040519150601f19603f3d011682016040523d82523d6000602084013e6101fa565b606091505b505090508061023e576040517f08c379a00000000000000000000000000000000000000000000000000000000081526004016102359061055b565b60405180910390fd5b005b34801561024c57600080fd5b005b34801561025a57600080fd5b506102636102cf565b6040516102709190610446565b60405180910390f35b34801561028557600080fd5b5061028e6102d5565b60405161029b9190610446565b60405180910390f35b3480156102b057600080fd5b506102b96102db565b6040516102c69190610446565b60405180910390f35b60025481565b60005481565b60015481565b600082825260208201905092915050565b7f4974656d206973207061696420616c7265616479210000000000000000000000600082015250565b60006103286015836102e1565b9150610333826102f2565b602082019050919050565b600060208201905081810360008301526103578161031b565b9050919050565b7f4f6e6c792066756c6c207061796d656e747320616c6c6f776564000000000000600082015250565b6000610394601a836102e1565b915061039f8261035e565b602082019050919050565b600060208201905081810360008301526103c381610387565b9050919050565b6000819050919050565b7f4e487b7100000000000000000000000000000000000000000000000000000000600052601160045260246000fd5b600061040e826103ca565b9150610419836103ca565b9250828201905080821115610431576104306103d4565b5b92915050565b610440816103ca565b82525050565b600060208201905061045b6000830184610437565b92915050565b600081519050919050565b600081905092915050565b60005b8381101561049557808201518184015260208101905061047a565b60008484015250505050565b60006104ac82610461565b6104b6818561046c565b93506104c6818560208601610477565b80840191505092915050565b60006104de82846104a1565b915081905092915050565b7f546865207472616e73616374696f6e207761736e27742073756363657373667560008201527f6c2c2063616e63656c6c696e6700000000000000000000000000000000000000602082015250565b6000610545602d836102e1565b9150610550826104e9565b604082019050919050565b6000602082019050818103600083015261057481610538565b905091905056fea264697066735822122017cbbdf634225e4c0e0bfed1c27ea3b4ca67ddd90e0b32a74b6c36c27679cf7e64736f6c63430008120033a2646970667358221220fb1a3bcf07fc3fb485273c1938e930b7545162b5bb11d87998347c0fed99b0f464736f6c63430008120033",
  "immutableReferences": {},
  "source": "// SPDX-License-Identifier: UNLICENSED\r\npragma solidity ^0.8.18;\r\n\r\nimport \"./Ownable.sol\";\r\nimport \"./Item.sol\";\r\n\r\ncontract ItemManager is Ownable {\r\n    enum SupplyChainState {Created, Paid, Delivered}\r\n\r\n    struct S_Item {\r\n        Item _item;\r\n        string _identifier;\r\n        uint _itemPrice;\r\n        SupplyChainState _state;\r\n        address _buyer; \r\n        uint8 _rating; \r\n        bool _isRated;  \r\n    }\r\n\r\n    mapping(uint => S_Item) public items;\r\n    uint itemIndex;\r\n    \r\n    event SupplyChainStep(uint _itemIndex, uint _step, address _itemAddress);\r\n    event ItemRated(uint _itemIndex, uint8 _rating); \r\n\r\n    function createItem(string memory _identifier, uint _itemPrice) public {\r\n        Item item = new Item(this, _itemPrice, itemIndex);\r\n        items[itemIndex]._item = item;\r\n        items[itemIndex]._identifier = _identifier;\r\n        items[itemIndex]._itemPrice = _itemPrice;\r\n        items[itemIndex]._state = SupplyChainState.Created;\r\n        items[itemIndex]._isRated = false; \r\n        emit SupplyChainStep(itemIndex, uint(items[itemIndex]._state), address(item));\r\n        itemIndex++;\r\n    }\r\n\r\n    function triggerPayment(uint _itemIndex) public payable {\r\n        require(items[_itemIndex]._itemPrice == msg.value, \"Only full payments accepted!\");\r\n        require(items[_itemIndex]._state == SupplyChainState.Created, \"Item is further in the chain!\");\r\n        \r\n        items[_itemIndex]._state = SupplyChainState.Paid;\r\n        items[_itemIndex]._buyer = msg.sender; \r\n        emit SupplyChainStep(_itemIndex, uint(items[_itemIndex]._state), address(items[_itemIndex]._item));\r\n    }\r\n\r\n    function triggerDelivery(uint _itemIndex) public {\r\n        require(items[_itemIndex]._state == SupplyChainState.Paid, \"Item is further in the chain!\");\r\n        \r\n        items[_itemIndex]._state = SupplyChainState.Delivered;\r\n        emit SupplyChainStep(_itemIndex, uint(items[_itemIndex]._state), address(items[_itemIndex]._item));\r\n    }\r\n\r\n    function submitRating(uint _itemIndex, uint8 _rating) public {\r\n        require(items[_itemIndex]._state == SupplyChainState.Delivered, \"Item must be delivered to be rated!\");\r\n        require(msg.sender == items[_itemIndex]._buyer, \"Only the buyer can submit a rating!\");\r\n        require(_rating >= 1 && _rating <= 5, \"Rating must be between 1 and 5!\");\r\n        require(!items[_itemIndex]._isRated, \"Item has already been rated!\");\r\n\r\n        items[_itemIndex]._rating = _rating;\r\n        items[_itemIndex]._isRated = true; \r\n        emit ItemRated(_itemIndex, _rating); \r\n    }\r\n\r\n\r\n    function getRating(uint _itemIndex) public view returns (uint8) {\r\n        require(items[_itemIndex]._isRated, \"Item has not been rated yet!\");\r\n        return items[_itemIndex]._rating;\r\n    }\r\n}\r\n",
  "sourcePath": "E:\\Blockchain\\reactbox\\contracts\\ItemManager.sol",
  "compiler": {
    "name": "solc",
    "version": "0.8.18+commit.87f61d96.Emscripten.clang"
  },
  "schemaVersion": "3.4.16",
  "updatedAt": "2024-09-08T02:52:15.692Z",
  "networkType": "ethereum",
  "devdoc": {
    "kind": "dev",
    "methods": {},
    "version": 1
  },
  "userdoc": {
    "kind": "user",
    "methods": {},
    "version": 1
  }
}